:100000000C9435000C945D000C945D000C945D0024
:100010000C945D000C945D000C945D000C945D00EC
:100020000C945D000C945D000C945D000C945D00DC
:100030000C945D000C945D000C945D000C945D00CC
:100040000C9491000C945D000C9422030C945303C7
:100050000C945D000C945D000C945D000C945D00AC
:100060000C945D000C945D00180411241FBECFEFAA
:10007000D8E0DEBFCDBF11E0A0E0B1E0EAE6F9E0F4
:1000800002C005900D92A831B107D9F711E0A8E19F
:10009000B1E001C01D92A83CB107E1F710E0CAE64B
:1000A000D0E004C02297FE010E94AF04C836D107F9
:1000B000C9F70E9455040C94B3040C940000FC0191
:1000C00001900020E9F73197E81BF90BDC0120E0F3
:1000D00030E080E090E005C04D9150E024273527C6
:1000E00001968E179F07C1F7C901089589EA91E02B
:1000F00040E052EC61E070E00E949A03089580E0D5
:1001000091E00E945F00BC0189EA91E04AE050E082
:100110000E944E0268EE73E080E090E00E94FF00D3
:1001200008951F920F920FB60F9211242F933F93B1
:100130008F939F93AF93BF9380911C0190911D016A
:10014000A0911E01B0911F01309120010196A11DC7
:10015000B11D232F2D5F2D3720F02D570196A11DA6
:10016000B11D2093200180931C0190931D01A09349
:100170001E01B0931F018091180190911901A09167
:100180001A01B0911B010196A11DB11D80931801A8
:1001900090931901A0931A01B0931B01BF91AF91E5
:1001A0009F918F913F912F910F900FBE0F901F90B5
:1001B00018959FB7F894209118013091190140913A
:1001C0001A0150911B0186B5A89B06C08F3F21F0F4
:1001D0002F5F3F4F4F4F5F4F9FBF542F432F322F03
:1001E0002227280F311D411D511D82E0220F331F90
:1001F000441F551F8A95D1F7B901CA010895EF929E
:10020000FF920F931F93CF93DF937B018C010E948A
:10021000D900EB010FC00E94D9006C1B7D0B83E05D
:10022000683E780738F00894E108F10801091109DF
:10023000C851DC4FE114F1040105110561F7DF91AC
:10024000CF911F910F91FF90EF900895789484B50E
:10025000826084BD84B5816084BD85B5826085BDC2
:1002600085B5816085BDEEE6F0E0808181608083A8
:10027000E1E8F0E01082808182608083808181608B
:100280008083E0E8F0E0808181608083E1EBF0E052
:10029000808184608083E0EBF0E0808181608083F6
:1002A000EAE7F0E0808184608083808182608083DF
:1002B0008081816080838081806880831092C1000A
:1002C0000895CF92DF92EF92FF920F931F93CF93F7
:1002D000DF936C017B018A01C0E0D0E00FC0D70141
:1002E0006D917D01D601ED91FC910190F081E02DA1
:1002F000C6010995C80FD91F0150104001151105FD
:1003000071F7CE01DF91CF911F910F91FF90EF9088
:10031000DF90CF900895DB010D900020E9F7AD014B
:1003200041505040461B570BDC01ED91FC9102807F
:10033000F381E02D09950895DC01ED91FC91019088
:10034000F081E02D099508950F931F93CF93DF93CC
:10035000EC016DE00E949C018C01CE016AE00E94DC
:100360009C01080F191FC801DF91CF911F910F91B8
:1003700008958F929F92AF92BF92CF92DF92EF92A9
:10038000FF920F931F93DF93CF93CDB7DEB7A19763
:100390000FB6F894DEBF0FBECDBF6C01042FE52F62
:1003A000CB01122F19A2223008F41AE021E2E22E2A
:1003B000F12CEC0EFD1E812E9924AA24BB2403C02F
:1003C000022FE32FCA01602F7E2FA50194010E9406
:1003D0007704129F802D1124081B0894E108F1086E
:1003E0000A3014F4005D01C0095CF7010083211597
:1003F00031054105510521F7C601B7010E948B0166
:10040000A1960FB6F894DEBF0FBECDBFCF91DF919E
:100410001F910F91FF90EF90DF90CF90BF90AF9022
:100420009F908F900895CF92DF92EF92FF920F935B
:100430001F93CF93DF93EC017A018B0121153105D6
:1004400041F4E881F9810190F081E02D642F099554
:100450001AC02A303105A9F477FF12C06DE20E945C
:100460009C016C0144275527BA014E195F09600BA6
:10047000710BCE012AE00E94B901C80ED91E04C03A
:100480002AE00E94B9016C01C601DF91CF911F9152
:100490000F91FF90EF90DF90CF9008950F931F93EF
:1004A000CF93DF93EC019A01CB01AC01662757FD96
:1004B0006095762FCE010E9413028C01CE010E941E
:1004C000A401080F191FC801DF91CF911F910F914F
:1004D0000895FC0184859585FC01E05CFF4F208137
:1004E00031818E5B9F4FFC0180819181281B390BEC
:1004F0002F733070C9010895FC0184859585FC0136
:10050000E05CFF4F40815181FC01EE5BFF4F208199
:1005100031814217530741F00190F081E02DE80F3F
:10052000F91F208130E002C02FEF3FEFC90108958D
:10053000FC0184859585FC01E05CFF4F4081518181
:10054000FC01EE5BFF4F208131814217530771F0B0
:10055000A081B181A80FB91F2C9180819181019652
:100560008F7390709183808330E002C02FEF3FEF54
:10057000C9010895DC011E968D919C911F97FC0185
:10058000E05CFF4F8E5B9F4F40815181DC012D91DC
:100590003C91119742175307B9F708951F93FC0137
:1005A000162F26853785D901A05CBF4F8D919C9170
:1005B000019660E470E00E946404D901AE5BBF4F15
:1005C0004D915C91119784179507D1F3D901A05CE7
:1005D000BF4F0D90BC91A02DA20FB31F1C93A685F9
:1005E000B785A05CBF4F11969C938E93A689B7895F
:1005F0002C9181E090E0058C02C0880F991F0A942D
:10060000E2F7282B2C9381E090E01F910895FB01E5
:10061000E05CFF4F208131812F5F3F4F2F7330709F
:10062000DB01AE5BBF4F4D915C91119724173507ED
:1006300039F0A081B181A60FB71F8C93318320833D
:10064000089508951F920F920FB60F9211242F93C1
:100650003F934F935F936F937F938F939F93AF934A
:10066000BF93EF93FF938091C60061E271E00E9417
:100670000703FF91EF91BF91AF919F918F917F9170
:100680006F915F914F913F912F910F900FBE0F90FF
:100690001F90189589EA91E00E946902009711F075
:1006A0000E94210308951F920F920FB60F921124FA
:1006B0002F933F935F936F937F938F939F93AF930A
:1006C000BF93EF93FF932091A5013091A6018091F4
:1006D000A7019091A8012817390731F48091C10032
:1006E0008F7D8093C10016C0E091A701F091A80111
:1006F000EB59FE4F20818091A7019091A8010196AE
:1007000060E470E00E9464049093A8018093A701C4
:100710002093C600FF91EF91BF91AF919F918F9170
:100720007F916F915F913F912F910F900FBE0F902E
:100730001F901895DF92EF92FF920F931F93CF9324
:10074000DF93EC017A018B01DD24D394403081EEFC
:10075000580780E0680780E0780749F4DD24EC89D9
:10076000FD89108260E874E88EE190E00FC0EC89AA
:10077000FD8981E090E00E8C02C0880F991F0A94D9
:10078000E2F7808360E079E08DE390E0A8019701D3
:100790000E94770421503040404050405695479584
:1007A0003795279580E12030380710F0DD20B1F62D
:1007B000E889F9893083EA89FB892083EE89FF89FA
:1007C000408181E090E09C010A8C02C0220F331F1F
:1007D0000A94E2F7422B4083EE89FF8940819C0115
:1007E0000B8C02C0220F331F0A94E2F7422B408386
:1007F000EE89FF8940819C010C8C02C0220F331FBF
:100800000A94E2F7422B4083EE89FF8920810D8C08
:1008100002C0880F991F0A94E2F780958223808393
:10082000DF91CF911F910F91FF90EF90DF9008958E
:100830001092AC011092AB0188EE93E0A0E0B0E022
:100840008093AD019093AE01A093AF01B093B0013E
:10085000EBEAF1E08CE091E09293829381E291E007
:100860009587848785E691E09787868785EC90E079
:10087000918B808B84EC90E0938B828B80EC90E06A
:10088000958B848B81EC90E0978B868B86EC90E047
:10089000918F808F84E0828F83E0838F87E0848FC5
:1008A00085E0858F81E0868F0895CF93DF930E9446
:1008B00026010E947600CAE4D3E00E947F002097C0
:1008C000E1F30E944A03F9CF97FB092E07260AD0CD
:1008D00077FD04D02ED006D000201AF470956195D3
:1008E0007F4F0895F6F7909581959F4F0895A1E267
:1008F0001A2EAA1BBB1BFD010DC0AA1FBB1FEE1F9A
:10090000FF1FA217B307E407F50720F0A21BB30BE4
:10091000E40BF50B661F771F881F991F1A9469F760
:1009200060957095809590959B01AC01BD01CF01BC
:100930000895AA1BBB1B51E107C0AA1FBB1FA61726
:10094000B70710F0A61BB70B881F991F5A95A9F778
:1009500080959095BC01CD010895EE0FFF1F059085
:0A096000F491E02D0994F894FFCF04
:10096A0048454C4C4F20320000000000CE02610185
:08097A00690298027C02BA0236
:00000001FF
