:100000000C9434000C9451000C9451000C94510049
:100010000C9451000C9451000C9451000C9451001C
:100020000C9451000C9451000C9451000C9451000C
:100030000C9451000C9451000C9451000C945100FC
:100040000C9451000C9451000C9451000C945100EC
:100050000C9451000C9451000C9451000C945100DC
:100060000C9451000C94510011241FBECFEFD8E026
:10007000DEBFCDBF11E0A0E0B1E0ECE0F9E002C0EE
:1000800005900D92A434B107D9F711E0A4E4B1E0D2
:1000900001C01D92AA34B107E1F70E949E000C94A2
:1000A00084040C9400001F93182F8A3019F48DE0FB
:1000B0000E9453008091C00085FFFCCF1093C600C2
:1000C00080E090E01F9108958FEF84B987B98AB9D5
:1000D0001092C50083E38093C40088E18093C1003F
:1000E00086E391E0909347018093460182E085BDCD
:1000F000089591E095BB819586BDA89BFECF08959C
:10010000CF93DF93EC010DC08AEF0E9479008AEF54
:100110000E9479008AEF0E9479008AEF0E9479009C
:100120002197209789F7DF91CF9108955B9880916F
:10013000C00087FFFCCF8091C60008951F93CF9326
:10014000DF930E9464001AE02D9A88EC90E00E94F0
:1001500080002D9888EC90E00E9480001150A1F75B
:1001600000D0C0E0D1E0ADB7BEB71296DC93CE931D
:1001700011970E947C01EDB7FEB7D283C1830E9424
:100180007C01ADB7BEB71296DC93CE9311970E9457
:100190007C01EDB7FEB7D283C1830E947C01ADB76D
:1001A000BEB71296DC93CE9311970E947C01EDB7F7
:1001B000FEB7D283C1830E947C01ADB7BEB7129651
:1001C000DC93CE9311970E947C01EDB7FEB7D283EA
:1001D000C1830E947C01ADB7BEB71296DC93CE936B
:1001E00011970E947C01EDB7FEB7D283C1830E94B4
:1001F0007C01ADB7BEB71296DC93CE9311970E94E7
:100200007C01EDB7FEB7D283C1830E947C01ADB7FC
:10021000BEB71296DC93CE9311970E947C01EDB786
:10022000FEB7D283C1830E947C01ADB7BEB71296E0
:10023000DC93CE9311970E947C01EDB7FEB7D28379
:10024000C1830E947C01ADB7BEB71296DC93CE93FA
:1002500011970E947C01EDB7FEB7D283C1830E9443
:100260007C01ADB7BEB71296DC93CE9311970E9476
:100270007C01EDB7FEB7D283C1830E947C01ADB78C
:10028000BEB71296DC93CE9311970E947C01EDB716
:10029000FEB7D283C1830E947C01ADB7BEB7129670
:1002A000DC93CE9311970E947C01EDB7FEB7D28309
:1002B000C1830E947C010F900F90C2E2D1E00E94A6
:1002C0009600823729F48EE091E00E949101F7CFE9
:1002D00000D000D0EDB7FEB73196ADB7BEB71296DD
:1002E000DC93CE931197828313820E947C010F903E
:1002F0000F900F900F90E3CFA0E0B0E0E2E8F1E0C4
:100300000C945D04FE0135966191719180914601D6
:1003100090914701AF010E94C6012096E2E00C9443
:100320007904EF92FF920F931F93CF93DF938C0189
:10033000E0914601F0914701838181FF1FC0C0E039
:10034000D0E00AC0DB011896ED91FC911997099550
:10035000009711F0CFEFDFEFF80181918F016091ED
:10036000460170914701882369F7DB011896ED91EA
:10037000FC9119978AE00995009711F0CFEFDFEF14
:10038000CE01CDB7DEB7E6E00C947504ACE0B0E08A
:10039000ECECF1E00C944D046C011B018A01FC01B2
:1003A00017821682838181FFD1C12E010894411CDE
:1003B000511CF6019381F10193FD859193FF819189
:1003C0001F01882309F4BEC1853239F493FD85915C
:1003D00093FF81911F01853229F490E0B6010E94BC
:1003E000C303E7CFEE24FF2420E02032B0F48B32A9
:1003F00069F08C3228F4803251F0833271F40BC0F2
:100400008D3239F0803349F421602CC022602460A1
:1004100029C0286027C0206125C027FD2CC0382FA7
:1004200030533A3098F426FF08C08E2D880FE82EFE
:10043000EE0CEE0CE80EE30E15C08F2D880FF82E93
:10044000FF0CFF0CF80EF30E20620CC08E3221F46C
:1004500026FD78C1206406C08C3611F4206802C0E5
:10046000883649F4F10193FD859193FF81911F0135
:10047000882309F0BACF982F9554933018F09052F2
:10048000933028F40C5F1F4FFFE3F9830DC08336D0
:1004900031F0833771F0833509F060C022C0F80174
:1004A000808189830E5F1F4F420171E0A72EB12C1E
:1004B00016C062E0662E712C600E711EF8018080FD
:1004C000918026FF03C06E2D70E002C06FEF7FEFBA
:1004D000C4012C870E94B8035C0183012C852F770F
:1004E00017C052E0652E712C600E711EF8018080DD
:1004F000918026FF03C06E2D70E002C06FEF7FEF8A
:10050000C4012C870E94AD035C012C852068830107
:1005100023FD20C008C080E290E0B6012C870E9435
:10052000C303FA942C858F2D90E0A816B90698F392
:1005300011C0F40127FD859127FF81914F0190E0C3
:10054000B6012C870E94C3032C85F110FA940894FD
:10055000A108B108A114B10461F7F1C0843611F00B
:10056000893649F527FF08C0F801608171818281D1
:1005700093810C5F1F4F09C0F8016081718188274A
:1005800077FD8095982F0E5F1F4F4FE6B42EB22255
:1005900097FF09C090958095709561957F4F8F4F1B
:1005A0009F4FF0E8BF2AA2012AE030E00E94EF034B
:1005B000782E741845C0853731F43FEEB32EB22241
:1005C0002AE030E025C099EFB92EB2228F36C1F073
:1005D000803720F4883509F0B5C00DC0803721F090
:1005E000883709F0AFC002C020E1B22AB4FE0BC0C8
:1005F00084E0B82A08C0B4FE09C0E6E0BE2A06C0FE
:1006000028E030E005C020E130E002C020E132E027
:10061000B7FE08C0F80160817181828193810C5F0F
:100620001F4F07C0F8016081718180E090E00E5F8C
:100630001F4FA2010E94EF03782E7418FFE7BF221C
:10064000B6FE0BC02EEFB2227E1438F4B4FE07C003
:10065000B2FC05C08FEEB82202C0A72C01C0AE2CA0
:100660008B2D90E0B4FE0DC0FE01E70DF11D208141
:10067000203319F4E9EEBE2209C0A394B2FE06C0ED
:1006800004C086789070009709F0A3948B2C99246D
:10069000B3FC14C0B0FE0FC0AF1428F4E72CEF0C6D
:1006A000EA18AF2C08C0E72C06C080E290E0B60143
:1006B0000E94C303A394AF14C0F304C0AF1410F49A
:1006C000FA1801C0FF2484FE0FC080E390E0B60159
:1006D0000E94C30382FE1FC081FE03C088E590E034
:1006E00010C088E790E00DC0C40186789070009734
:1006F00091F081FC02C080E201C08BE2B7FC8DE288
:1007000090E0B6010E94C30306C080E390E0B6010A
:100710000E94C303EA947E14C0F37A94F201E70DB9
:10072000F11D808190E0B6010E94C3037720A9F7F4
:1007300006C080E290E0B6010E94C303FA94FF2055
:10074000C1F737CEF6012681378102C02FEF3FEF88
:10075000C9012C96E2E10C946904FC0105906150FA
:1007600070400110D8F7809590958E0F9F1F0895C7
:10077000FC016150704001900110D8F78095909570
:100780008E0F9F1F08950F931F93CF93DF938C01BC
:10079000EB018B8181FF1BC082FF0DC02E813F8149
:1007A0008C819D812817390764F4E881F9810193D0
:1007B000F983E88306C0E885F985802F09950097BD
:1007C00031F48E819F8101969F838E8302C00FEF4B
:1007D0001FEFC801DF91CF911F910F910895FA018A
:1007E000AA27283051F1203181F1E8946F936E7F70
:1007F0006E5F7F4F8F4F9F4FAF4FB1E03ED0B4E061
:100800003CD0670F781F891F9A1FA11D680F791FA1
:100810008A1F911DA11D6A0F711D811D911DA11DB2
:1008200020D009F468943F912AE0269F11243019C2
:10083000305D3193DEF6CF010895462F4770405D5D
:100840004193B3E00FD0C9F7F6CF462F4F70405D0C
:100850004A3318F0495D31FD4052419302D0A9F767
:10086000EACFB4E0A6959795879577956795BA9561
:10087000C9F700976105710508959B01AC010A2E27
:1008800006945795479537952795BA95C9F7620FFE
:10089000731F841F951FA01D08952F923F924F92A2
:1008A0005F926F927F928F929F92AF92BF92CF9200
:1008B000DF92EF92FF920F931F93CF93DF93CDB709
:1008C000DEB7CA1BDB0B0FB6F894DEBF0FBECDBF81
:1008D00009942A88398848885F846E847D848C8452
:1008E0009B84AA84B984C884DF80EE80FD800C815B
:1008F0001B81AA81B981CE0FD11D0FB6F894DEBF3E
:0C0900000FBECDBFED010895F894FFCFAD
:10090C000A0D2020464F54414120200A0D0052650B
:10091C007175657374206175746F2072657365747D
:10092C002000596F7520707265737365643A2025C9
:10093C00630A0D00E01300000002000000005300E9
:04094C0000000000A7
:00000001FF
