:020000021000EC
:10F000000C9472F80C9493F80C9493F80C9493F875
:10F010000C9493F80C9493F80C9493F80C9493F844
:10F020000C9493F80C9493F80C9493F80C9493F834
:10F030000C9493F80C9493F80C9493F80C9493F824
:10F040000C9493F80C9493F80C9493F80C9493F814
:10F050000C9493F80C9493F80C9493F80C9493F804
:10F060000C9493F80C9493F80C9493F80C9493F8F4
:10F070000C9493F80C9493F80C9493F80C9493F8E4
:10F080000C9493F80C9493F80C9493F80C9493F8D4
:10F090000C9493F80C9493F80C9493F80C9493F8C4
:10F0A0000C9493F80C9493F80C9493F80C9493F8B4
:10F0B0000C9493F80C9493F80C9493F80C9493F8A4
:10F0C0000C9493F80C9493F80C9493F80C9493F894
:10F0D0000C9493F80C9493F80C9493F80C9493F884
:10F0E0000C9493F811241FBECFEFD1E2DEBFCDBF49
:10F0F00000E00CBF12E0A0E0B2E0E0E3F5EF01E0D9
:10F100000BBF02C007900D92A230B107D9F714E0EF
:10F11000A2E0B2E001C01D92AA30B107E1F70E945F
:10F120001AF90C9496FA0C9400F8DF92EF92FF9281
:10F130000F931F93CF93DF937B018C01EA0183E050
:10F14000F70100935B0080935700E89507B600FC39
:10F15000FDCFD801C70140E050E0DD24D3946881A1
:10F16000398120E0F901E60FF11DBF0122960B0164
:10F17000FC01A0935B00D0925700E89511244E5FEC
:10F180005F4F0296A11DB11DF1E040305F0739F7D6
:10F1900085E0F70100935B0080935700E89507B680
:10F1A00000FCFDCFDF91CF911F910F91FF90EF9069
:10F1B000DF9008959091C00095FFFCCF8093C6002A
:10F1C000089581E08093000280E090E0DC010BC0B4
:10F1D0000196A11DB11D813A26E8920721E0A20700
:10F1E00020E0B20739F02091C00027FFF1CF8091D5
:10F1F000C6000895109200028091C60008958823E9
:10F20000C1F090E02F9A2FEF33ED40E321503040D2
:10F210004040E1F700C000002F982FEF33ED40E3AE
:10F22000215030404040E1F700C000009F5F981738
:10F2300048F308958F929F92AF92BF92CF92DF9240
:10F24000EF92FF920F931F93DF93CF9300D00F9213
:10F25000CDB7DEB71092C50083E38093C40010924F
:10F26000C00086E08093C20088E18093C100689866
:10F27000709A279A81E00E94FFF88091C00085FF74
:10F28000FCCF85E08093C600AA24BB246501809151
:10F29000C00087FD17C00894A11CB11CC11CD11C63
:10F2A00041EAA41646E8B40641E0C40640E0D406AC
:10F2B00070F3E0910202F091030219958091C00071
:10F2C00087FFE9CF8091C600863029F0E0910202E5
:10F2D000F0910302199580E027E004E511E031E1A7
:10F2E000882309F466C08091C00085FFFCCF20937D
:10F2F000C60065C010920002D090C600D0920904EA
:10F3000080910002882379F31093000281EA96E845
:10F31000A1E0B0E005C00197A109B10909F401C15C
:10F320004091C00047FFF7CFB090C6004091050262
:10F33000509106024115510541F1E8E0F2E0BF01AC
:10F34000882499241093000281EA96E8A1E0B0E0B5
:10F3500005C00197A109B10909F4D5C0C090C0004A
:10F36000C7FEF7CF8091C600DB018D93BD010894E5
:10F37000811C911C8416950628F3CA01885F9D4F55
:10F380006191B60EE817F907D9F78D2D8A0D840F14
:10F390008B0D09F0A5CF609108047091090480E0FD
:10F3A00090E048E052E02B833C830E9495F82B814B
:10F3B0003C818091C00085FFFCCF0093C600109374
:10F3C000000281EA96E8A1E0B0E004C00197A1093B
:10F3D000B10969F04091C00047FFF8CF8091C600A5
:10F3E0008A3359F080910002882349F77CCF10922C
:10F3F00000028091C6008A33A9F71093000280E0D2
:10F4000090E0DC010CC00196A11DB11D813A56E8C7
:10F41000950751E0A50750E0B50709F464C0409195
:10F42000C00047FFF0CF5091C600509304021093E4
:10F43000000280E090E0DC010CC00196A11DB11D2E
:10F44000813A66E8960761E0A60760E0B60709F42E
:10F4500039C04091C00047FFF0CF8091C600809333
:10F460000702F52EEE24B701680F711D7093060296
:10F4700060930502533509F439C01093000281EA04
:10F4800096E8A1E0B0E005C00197A109B10909F42F
:10F4900041C04091C00047FFF7CFA090C600A092A6
:10F4A00008041093000281EA96E8A1E0B0E005C0EC
:10F4B0000197A109B10909F41DCF4091C00047FF90
:10F4C000F7CF1ACF109200028091C60080930702F6
:10F4D0005A831982A981BA81A80FB11DB09306027F
:10F4E000A093050200CF109200029DCF30935700E9
:10F4F000E895E0910202F09103022B833C83199579
:10F500003C812B81BACF109200028091C600FB0192
:10F510008083E9CE109200028091C6008093080497
:10F52000E2CE109200028091C600DDCEF894FFCFAB
:02F530000100D8
:040000031000F000F9
:00000001FF
