:107800000C94343C0C94513C0C94513C0C94513CE1
:107810000C94513C0C94513C0C94513C0C94513CB4
:107820000C94513C0C94513C0C94513C0C94513CA4
:107830000C94513C0C94513C0C94513C0C94513C94
:107840000C94513C0C94513C0C94513C0C94513C84
:107850000C94513C0C94513C0C94513C0C94513C74
:107860000C94513C0C94513C11241FBECFEFD8E036
:10787000DEBFCDBF11E0A0E0B1E0EAE2FBE702C06D
:1078800005900D92A630B107D9F712E0A6E0B1E05D
:1078900001C01D92AB30B107E1F70E94E43C0C94AB
:1078A000933D0C94003C0F931F93CF93DF93DA0129
:1078B0001FB7F894F999FECF83E0FB01809357003E
:1078C000E89507B600FCFDCFCB0180589F4FFB0128
:1078D00001E04C9111963C91119720E0E901C40F11
:1078E000D11D12960E0100935700E895112432968F
:1078F000E817F90771F785E0FB0180935700E895D9
:1079000007B600FCFDCF81E180935700E8951FBFCB
:10791000DF91CF911F910F9108959091C00095FF35
:10792000FCCF8093C60008958BE40E948D3C80E3D9
:107930000E948D3C80E30E948D3C80E30E948D3C40
:10794000089581E08093000180E090E0DC010EC0AA
:107950000196A11DB11D87302FE992072EEFA207D6
:107960002FEFB20719F41092000104C02091C0005B
:1079700027FFEECF8091C6000895EF92FF920F93FC
:107980001F93CF93DF9301E011E0C0E0D0E0F80156
:10799000F1908F010E94A13CF81611F0CFEFDFEFBC
:1079A000F1E005301F0799F7CE01DF91CF911F91CC
:1079B0000F91FF90EF90089590E003C02D9A2D98BD
:1079C0009F5F9817D8F30895CF92DF92EF92FF92BE
:1079D0000F931F93CF93DF931092C50083E380939F
:1079E000C40088E18093C100259A81E00E94DC3CBC
:1079F00085E00E948D3CEE24FF24870113C008948B
:107A0000E11CF11C011D111D87E0E8168FE9F80645
:107A10008EEF08078FEF180728F0E0910601F0912C
:107A2000070109958091C00087FFE9CF8091C600CA
:107A3000863029F0E0910601F0910701099580E078
:107A400091E1D92E882311F087E001C084E50E94DE
:107A50008D3C0E94A13C8A3329F08091000188234B
:107A6000C1F7F2CF0E94A13C8093080190910001E0
:107A7000992351F3833559F486E40E948D3CD092CA
:107A80005700E895E0910601F091070109950E94E1
:107A9000A13C80930902809100018823A9F20E94F1
:107AA000A13C80930A0280910001882369F20E9420
:107AB000A13CC82E80910001882331F2C9E0D1E0B9
:107AC0007E0100E010E00CC00E94A13CF701819310
:107AD0007F0180910001882309F4B6CF0F5F1F4F0B
:107AE00090910801292F30E00217130768F3275FF0
:107AF0003E4F02C08991C80EC217D307D9F78091B3
:107B00000A0220910902820F890F8C0D09F09ACF89
:107B10006091090270910A0280E090E049E051E032
:0A7B20000E94533C93CFF894FFCF6E
:067B2A00014B3030300079
:040000030000780081
:00000001FF
